:020000040800F2
:1000000000000C204D4C0008E14B0008E34B0008B9
:10001000E54B0008E74B0008E94B00089D4C000841
:10002000000000000000000000000000EB4B000892
:10003000ED4B000800000000EF4B0008F14B0008FA
:100040009D4C00089D4C00089D4C00089D4C0008EC
:100050009D4C00089D4C00089D4C00089D4C0008DC
:100060009D4C00089D4C00089D4C00089D4C0008CC
:100070009D4C00089D4C00089D4C00089D4C0008BC
:100080009D4C00089D4C00089D4C00089D4C0008AC
:100090009D4C00089D4C00089D4C00089D4C00089C
:1000A0009D4C00089D4C00089D4C00089D4C00088C
:1000B000000000009D4C00089D4C00089D4C00086D
:1000C0009D4C00089D4C00089D4C00089D4C00086C
:1000D0009D4C00089D4C00089D4C00089D4C00085C
:1000E0009D4C00089D4C00089D4C00089D4C00084C
:1000F0009D4C00089D4C00089D4C00089D4C00083C
:100100009D4C00089D4C00089D4C00089D4C00082B
:100110009D4C00089D4C00089D4C00089D4C00081B
:100120009D4C00089D4C00089D4C00089D4C00080B
:100130009D4C00089D4C00089D4C00089D4C0008FB
:100140009D4C00089D4C00089D4C00089D4C0008EB
:100150009D4C00089D4C00089D4C00089D4C0008DB
:100160009D4C00089D4C00089D4C00089D4C0008CB
:100170009D4C00089D4C00089D4C00089D4C0008BB
:100180009D4C00089D4C0008F94B00089D4C000850
:100190009D4C00089D4C00089D4C00089D4C00089B
:1001A0009D4C00089D4C00089D4C00089D4C00088B
:1001B0009D4C0008000000009D4C00089D4C00086C
:1001C0009D4C0008000000009D4C00089D4C00085C
:1001D0009D4C00089D4C00089D4C00089D4C00085B
:1001E0009D4C00089D4C00089D4C00089D4C00084B
:1001F00000000000000000009D4C00089D4C00081D
:100200009D4C00089D4C00089D4C00089D4C00082A
:100210009D4C00089D4C00089D4C00089D4C00081A
:100220009D4C00089D4C00089D4C00089D4C00080A
:080230009D4C00089D4C0008E4
:10023800844641EA000313F0030349D1403A23D32B
:100248000B6803604B6843608B688360CB68C3604E
:100258000B6903614B6943618B698361CB69C36136
:100268000B6A03624B6A43628B6A8362CB6AC3621E
:100278000B6B03634B6B43638B6B8363CB6BC36306
:1002880040304031403ADBD230320BD30B68036048
:100298004B6843608B688360CB68C3601030103153
:1002A800103AF3D20C3205D351F8043B40F8043B22
:1002B800043AF9D2043208D0D2071CBF11F8013B26
:1002C80000F8013B01D30B8803806046704700BFEC
:1002D800082A13D38B07B1D010F00303AED0C3F1B3
:1002E8000403D21ADB071CBF11F8013B00F8013BDD
:1002F800A4D331F8023B20F8023B9FE7043AD9D354
:10030800013A11F8013B00F8013BF9D20B78037070
:100318004B7843708B7883706046704781F000415A
:1003280002E000BF83F0004330B54FEA41044FEAD2
:10033800430594EA050F08BF90EA020F1FBF54EA6D
:10034800000C55EA020C7FEA645C7FEA655C00F009
:10035800E2804FEA5454D4EB5555B8BF6D420CDDDA
:100368002C4480EA020281EA030382EA000083EA5D
:10037800010180EA020281EA0303362D88BF30BDFD
:1003880011F0004F4FEA01314FF4801C4CEA113153
:1003980002D0404261EB410113F0004F4FEA0333B2
:1003A8004CEA133302D0524263EB430394EA050F3D
:1003B80000F0A780A4F10104D5F1200E0DDB02FAAC
:1003C8000EFC22FA05F2801841F1000103FA0EF240
:1003D800801843FA05F359410EE0A5F120050EF106
:1003E800200E012A03FA0EFC28BF4CF0020C43FA37
:1003F80005F3C01851EBE37101F0004507D54FF044
:10040800000EDCF1000C7EEB00006EEB0101B1F593
:10041800801F1BD3B1F5001F0CD349085FEA3000D9
:100428004FEA3C0C04F101044FEA445212F5800FE4
:1004380080F09A80BCF1004F08BF5FEA500C50F181
:10044800000041EB045141EA050130BD5FEA4C0C64
:10045800404141EB0101013C28BFB1F5801FE9D2C1
:1004680091F0000F04BF01460020B1FA81F308BFE4
:100478002033A3F10B03B3F120020CDA0C3208DDB0
:1004880002F1140CC2F10C0201FA0CF021FA02F18B
:100498000CE002F11402D8BFC2F1200C01FA02F1FB
:1004A80020FA0CFCDCBF41EA0C019040E41AA2BF20
:1004B80001EB0451294330BD6FEA04041F3C1CDAE8
:1004C8000C340EDC04F11404C4F1200220FA04F008
:1004D80001FA02F340EA030021FA04F345EA0301B2
:1004E80030BDC4F10C04C4F1200220FA02F001FA74
:1004F80004F340EA0300294630BD21FA04F02946F6
:1005080030BD94F0000F83F4801306BF81F480118E
:100518000134013D4EE77FEA645C18BF7FEA655C01
:1005280029D094EA050F08BF90EA020F05D054EAD3
:10053800000C04BF1946104630BD91EA030F1EBFD8
:100548000021002030BD5FEA545C05D140004941DC
:1005580028BF41F0004130BD14F580043CBF01F5CF
:10056800801130BD01F0004545F0FE4141F47001B5
:100578004FF0000030BD7FEA645C1ABF1946104690
:100588007FEA655C1CBF0B46024650EA013406BF91
:1005980052EA033591EA030F41F4002130BD00BF50
:1005A80090F0000F04BF0021704730B54FF480640D
:1005B80004F132044FF000054FF0000150E700BF8E
:1005C80090F0000F04BF0021704730B54FF48064ED
:1005D80004F1320410F0004548BF40424FF00001DA
:1005E8003EE700BF42004FEAE2014FEA31014FEA1D
:1005F80002701FBF12F07F4393F07F4F81F060516C
:10060800704732F07F4208BF704793F07F4F04BFB6
:1006180041F40021704730B54FF4607401F0004593
:1006280021F000411CE700BF50EA010208BF7047F3
:1006380030B54FF000050AE050EA010208BF7047E4
:1006480030B511F0004502D5404261EB41014FF44D
:10065800806404F132045FEA915C3FF4D8AE4FF055
:1006680003025FEADC0C18BF03325FEADC0C18BF38
:10067800033202EBDC02C2F1200300FA03FC20FA89
:1006880002F001FA03FE40EA0E0021FA02F11444D6
:10069800BDE600BF70B54FF0FF0C4CF4E06C1CEAEF
:1006A80011541DBF1CEA135594EA0C0F95EA0C0F60
:1006B80000F0DEF82C4481EA030621EA4C5123EAD3
:1006C8004C5350EA013518BF52EA033541F4801102
:1006D80043F4801338D0A0FB02CE4FF00005E1FBB5
:1006E80002E506F00042E0FB03E54FF00006E1FBFF
:1006F80003569CF0000F18BF4EF0010EA4F1FF0442
:10070800B6F5007F64F5407404D25FEA4E0E6D4181
:1007180046EB060642EAC62141EA55514FEAC52092
:1007280040EA5E504FEACE2EB4F1FD0C88BFBCF50E
:10073800E06F1ED8BEF1004F08BF5FEA500E50F1BF
:10074800000041EB045170BD06F0004646EA010185
:1007580040EA020081EA0301B4EB5C04C2BFD4EBB7
:100768000C0541EA045170BD41F480114FF0000EB0
:10077800013C00F3AB8014F1360FDEBF002001F01E
:10078800004170BDC4F10004203C35DA0C341BDC98
:1007980004F11404C4F1200500FA05F320FA04F06A
:1007A80001FA05F240EA020001F0004221F000419E
:1007B80010EBD37021FA04F642EB06015EEA430E11
:1007C80008BF20EAD37070BDC4F10C04C4F1200541
:1007D80000FA04F320FA05F001FA04F240EA0200F4
:1007E80001F0004110EBD37041F100015EEA430EC5
:1007F80008BF20EAD37070BDC4F1200500FA05F2E5
:100808004EEA020E20FA04F301FA05F243EA020363
:1008180021FA04F001F0004121FA04F220EA020072
:1008280000EBD3705EEA430E08BF20EAD37070BDB8
:1008380094F0000F0FD101F00046400041EB010198
:1008480011F4801F08BF013CF7D041EA060195F07A
:10085800000F18BF704703F00046520043EB030334
:1008680013F4801F08BF013DF7D043EA0603704721
:1008780094EA0C0F0CEA135518BF95EA0C0F0CD02C
:1008880050EA410618BF52EA4306D1D181EA030172
:1008980001F000414FF0000070BD50EA410606BF6C
:1008A8001046194652EA430619D094EA0C0F02D1B1
:1008B80050EA013613D195EA0C0F05D152EA0336F6
:1008C8001CBF104619460AD181EA030101F0004114
:1008D80041F0FE4141F470014FF0000070BD41F05D
:1008E800FE4141F4780170BD70B54FF0FF0C4CF437
:1008F800E06C1CEA11541DBF1CEA135594EA0C0F56
:1009080095EA0C0F00F0A7F8A4EB050481EA030EA2
:1009180052EA03354FEA013100F088804FEA033389
:100928004FF0805545EA131343EA12634FEA022257
:1009380045EA111545EA10654FEA00260EF0004118
:100948009D4208BF964244F1FD0404F5407402D26A
:100958005B084FEA3202B61A65EB03055B084FEAFB
:1009680032024FF480104FF4002CB6EB020E75EBF8
:10097800030E22BFB61A754640EA0C005B084FEA20
:100988003202B6EB020E75EB030E22BFB61A75469D
:1009980040EA5C005B084FEA3202B6EB020E75EBE8
:1009A800030E22BFB61A754640EA9C005B084FEA60
:1009B8003202B6EB020E75EB030E22BFB61A75466D
:1009C80040EADC0055EA060E18D04FEA051545EA5C
:1009D80016754FEA06164FEAC30343EA52734FEA05
:1009E800C2025FEA1C1CC0D111F4801F0BD141EA7E
:1009F80000014FF000004FF0004CB6E711F4801FE3
:100A080004BF01430020B4F1FD0C88BFBCF5E06FC2
:100A18003FF6AFAEB5EB030C04BFB6EB020C5FEAD2
:100A2800500C50F1000041EB045170BD0EF0004E27
:100A38004EEA113114EB5C04C2BFD4EB0C0541EA59
:100A4800045170BD41F480114FF0000E013C90E656
:100A580045EA060E8DE60CEA135594EA0C0F08BF1A
:100A680095EA0C0F3FF43BAF94EA0C0F0AD150EA19
:100A780001347FF434AF95EA0C0F7FF425AF1046AC
:100A880019462CE795EA0C0F06D152EA03353FF4D4
:100A9800FDAE1046194622E750EA410618BF52EA51
:100AA80043067FF4C5AE50EA41047FF40DAF52EA25
:100AB80043057FF4EBAE12E74FF0FF3C06E000BFC2
:100AC8004FF0010C02E000BF4FF0010C4DF804CDCF
:100AD8004FEA410C7FEA6C5C4FEA430C18BF7FEA8F
:100AE8006C5C1BD001B050EA410C0CBF52EA430CBD
:100AF80091EA030F02BF90EA020F0020704710F13D
:100B0800000F91EA030F58BF994208BF90422CBFCB
:100B1800D8176FEAE37040F0010070474FEA410CC4
:100B28007FEA6C5C02D150EA013C07D14FEA430CE2
:100B38007FEA6C5CD6D152EA033CD3D05DF8040B53
:100B4800704700BF8446104662468C461946634685
:100B580000E000BF01B5FFF7B7FF002848BF10F15C
:100B6800000F01BD4DF808EDFFF7F4FF0CBF0120A1
:100B780000205DF808FB00BF4DF808EDFFF7EAFF1D
:100B880034BF012000205DF808FB00BF4DF808EDD8
:100B9800FFF7E0FF94BF012000205DF808FB00BFCD
:100BA8004DF808EDFFF7CEFF94BF012000205DF857
:100BB80008FB00BF4DF808EDFFF7C4FF34BF012064
:100BC80000205DF808FB00BF4FEA410C7FEA6C5C2F
:100BD80002D150EA013C0AD14FEA430C7FEA6C5C2F
:100BE80002D152EA033C02D14FF0000070474FF0A7
:100BF800010070474FEA410212F5001215D211D5D3
:100C08006FF47873B3EB625212D94FEAC12343F001
:100C1800004343EA505311F0004F23FA02F018BF83
:100C2800404270474FF00000704750EA013005D14C
:100C380011F0004008BF6FF0004070474FF000000F
:100C4800704700BF10B5054C237833B9044B13B176
:100C58000448AFF300800123237010BDC4060020B0
:100C680000000000CCB2000808B5034B1BB10349D3
:100C78000348AFF3008008BD00000000C80600204C
:100C8800CCB20008104B1B780BB90120704710B587
:100C980004464FF47A70B0FBF3F30C4A1068B0FBCB
:100CA800F3F001F093F868B90F2C01D901200AE09C
:100CB800002221464FF0FF3001F074F8044B1C600D
:100CC800002000E0012010BD0000002008000020E6
:100CD8000400002010B50F4A136843F480731360B2
:100CE800032001F04DF802F0BFF80B4B1B6A03F02C
:100CF8000F030A4AD35CD840094B18600020FFF75D
:100D0800C1FF10B10124204610BD044603F0D4FEF3
:100D1800F9E700BF00200240000C0246F0B30008CB
:100D280008000020034B1B78034A11680B4413602A
:100D3800704700BF00000020E0060020014B186843
:100D4800704700BFE006002038B50446FFF7F6FFFD
:100D58000546B4F1FF3F02D0044B1B781C44FFF753
:100D6800EDFF401BA042FAD338BD00BF00000020B1
:100D7800014B1868000C7047004004E010B4194B90
:100D8800984216D030300B0A9B0003F00C03C4586D
:100D980001F01F014FF01F0C0CFA01FC24EA0C0CA7
:100DA800C2F384628A404CEA0202C2505DF8044BE6
:100DB8007047836A01F01F010F248C4023EA040363
:100DC80032F07F4405D1C2F384628A4013438362C0
:100DD800ECE792FAA2F212B1B2FA82F2F5E7202217
:100DE800F3E700BF0010024631F07F4307D1C1F39B
:100DF800846101228A40836A13438362704791FAAF
:100E0800A1F131B1B1FA81F101F01F0101228A404B
:100E1800F1E72021F8E700001B4B98422BD010B4D3
:100E280031F07F431FD1C1F384634FEA516CC1F3A2
:100E3800406101EB8101A3EB410303EB4303143051
:100E48004FEA8C0101F0040144584FF0070C0CFAEA
:100E580003FC24EA0C0C02FA03F34CEA03034350A4
:100E68005DF8044B704791FAA1F313B1B3FA83F319
:100E7800DBE72023D9E7436923EA012302EA0122B9
:100E880013434361704700BF00100246002800F07A
:100E9800E88170B582B00446836F13B323689A68FB
:100EA80012F0005F05D09A6822F0204222F03F023B
:100EB8009A602268936813F0805F1FD1936823F0CB
:100EC800104323F03F0343F0805393609F4B1B680C
:100ED8009B099F4AA2FB03239B0901335B000193F3
:100EE80009E003F0FFFD0023E36784F87430D5E7D9
:100EF800019B013B0193019B002BF9D123689A6860
:100F080012F0805F40F0AF80A26F42F01002A2673B
:100F1800E26F42F00102E26701209A6812F00402CF
:100F280000D00122A16F11F0100F40F09381002A28
:100F380040F09081A16F21F4817141F00201A16715
:100F4800996811F0010F17D182498B4200F0948003
:100F580081498B4200F089807E49896811F0010F30
:100F68000AD17D498B4200F085807C4D63682968F1
:100F780021F470110B432B602568764B9D4200F0DD
:100F8800908094F82410636C43EA4133A1680B43C2
:100F980094F82C1043EA014394F82C10012900F02E
:100FA800A1806C498D4200F0B480616B21B101F4DD
:100FB8007871A66B31430B43EE6869493140194398
:100FC800E9602168634DA94200F0ED808B6813F059
:100FD800040300D001238A6812F0080200D001221D
:100FE800002B30D1002A2ED1227F92035A4B9942EE
:100FF80000F0AA80E36B5B001A43CB6823F48043BC
:1010080023F003031343CB60E3685BB121680A6FE5
:1010180022F47F5222F03F0213430B670B6F43F019
:1010280000430B6794F85430012B00F09F8022682E
:10103800136923F0010313612268136923F07043D5
:10104800216D0B4313612369012B00F0A3802268F3
:10105800136B23F00F031363A36F23F0030343F011
:101068000103A367FBE0002057E7896811F0010F2F
:1010780082D176E73B4D79E7A168013901F00C018F
:10108800DD6825F00C052943D960324DD5F80833C1
:1010980023F47013616801F470110B43C5F8083329
:1010A8006AE7217F94F824305B0343EA8133616C5B
:1010B80009B14FF480510B4361690B432169002941
:1010C8000ADB4FF400110B4323498D4207D094F8F3
:1010D800401049000B435FE721F00041F3E794F823
:1010E8004010F7E71B498D4204D0216B013943EAD0
:1010F800414356E794F8241011B943F4803350E77C
:10110800A16F41F02001A167E16F41F00101E167A2
:1011180047E7616B21B101F4E071A66B31430B43E2
:10112800EE68114931401943E960216A19B125680F
:101138006E6C31436964E16E00293FF442AF256863
:101148006E6C314369643CE7E36B55E708000020A7
:10115800632D3E0500100246008002420813024635
:1011680013C0F0FF088302420D80DEFF21680B697F
:101178003D4A1A40A56DE36D43EA0543256E2B43AE
:10118800656E2B43A56E43EA9503134343F00103B1
:101198000B6151E721680B6B23F00F03A26A013A38
:1011A80013430B6358E794F85450012D2CD00E6963
:1011B8002E4D354015430D612568A26C696921F0F3
:1011C80007010A436A612168E56C4A6922F07002E6
:1011D80042EA05124A61226902BB21688A6A62F002
:1011E8000F028A622268D168214A0A409A4228D0AE
:1011F800A36F23F0120343F01003A367E36F43F0D8
:101208000103E36701202AE0A26DE56D2A43256EFC
:101218002A43A56E2A4342F00102C8E7B2F5001F2F
:10122800E0D12568AA6AA26A013A920002F01C027B
:101238006FF00F0101FA02F2D4F888100A43AA628B
:10124800D0E70023E367A36F23F0030343F0010310
:10125800A36704E0A36F43F01003A367012002B063
:1012680070BD0120704700BF1EF800FC02FCFFF7AC
:10127800F3FF3F8308B5C06D03F074FA08BD7047EB
:1012880008B50346C06D826F12F0500F30D1836FDE
:1012980043F40073836703681A6812F0080F14D0C8
:1012A800DA6812F4406F20D1DB6813F4005F1CD1B8
:1012B800836F23F480738367836F13F4805F14D183
:1012C800836F43F0010383670FE0DB6813F0030FBC
:1012D8000BD1836F23F480738367836F13F4805F6C
:1012E80003D1836F43F00103836703F03CFA08BD21
:1012F800826F12F0100F04D1026F926E1846904759
:10130800F5E7FFF7BCFFF2E708B5C06D836F43F060
:1013180040038367C36F43F00403C367FFF7AFFF5E
:1013280008BD0000F0B583B000230193036890F86E
:101338007420012A00F0CB8304460D46012280F870
:1013480074209A6812F0040F09D0836F43F02003C9
:1013580083670120002384F8743003B0F0BDAC4AE1
:10136800934200F013820A6832F07F413BD1C2F306
:10137800846201219140DA690A43DA612A6869685E
:101388002068FFF7FBFC2068836813F0040300D093
:101398000123866816F0080600D0012603B976B343
:1013A80021688B6813F0010F40F089832B68E86887
:1013B800D1F8C02023F07F4622EA060200F0180682
:1013C8009448F040034023F07F431343C1F8C030F2
:1013D800EB6813F5803F00F0EB802B68002BC0F220
:1013E80060810020B6E792FAA2F232B1B2FA82F234
:1013F80002F01F0201219140BDE72022F8E7AA6808
:101408002968FFF709FD69692268D368C3F3810376
:101418005B0099402F69042F4ED02868603252F83B
:10142800273003F0E063400000F0784001430B43AD
:1014380042F8273023682869EA69603353F8201096
:1014480021F080710A4343F82020AB7E012B12D093
:1014580023682969603353F8212022F0007243F889
:10146800212023682969603353F8212022F0806203
:1014780043F8212094E7236828696A7EBAB94FF0B7
:101488000071603353F8202022F000720A4343F8B9
:101498002020236829696A7E012A0AD0603353F81C
:1014A800212022F08062324343F8212078E7314638
:1014B800E7E74FF08066F1E7136E136E9B0E03F0BB
:1014C8001E03296831F07F4037D1C1F38460984208
:1014D8003BD02068436E436E9B0E03F01E032A68C0
:1014E80032F07F413AD1C2F3846199423ED02068FC
:1014F800836E836E9B0E03F01E032A6832F07F41D1
:101508003DD1C2F38461994241D02068C36EC36E55
:101518009B0E03F01E032A6832F07F4140D1C2F3CC
:10152800846199427FF43CAFC16E01F0E0615300E1
:1015380003F078430B43C36632E791FAA1F010B188
:10154800B0FA80F0C3E72020C1E7106E00F0E06039
:101558004B0003F0784303431366BAE792FAA2F10B
:1015680011B1B1FA81F1C0E72021BEE7416E01F067
:10157800E061530003F078430B434366B7E792FA00
:10158800A2F111B1B1FA81F1BDE72021BBE7816E6B
:1015980001F0E061530003F078430B438366B4E73E
:1015A80092FAA2F111B1B1FA81F1BAE72021B8E7B4
:1015B8002B6833F07F401CD19A0E013202F01F02D3
:1015C800092A8CBF00220122002A3FD020BB990E95
:1015D8000131890601F0F84150BB9A0E013202F040
:1015E8001F02012393401943AA682068FFF714FCDF
:1015F800F3E693FAA3F24AB1B2FA82F2013202F0A8
:101608001F02092A8CBF00220122DDE72022F5E70C
:1016180000100246FFFF0F0093FAA3F131B1B1FAAF
:1016280081F10131890601F0F841D5E72021F8E779
:1016380093FAA3F343B1B3FA83F3013303F01F031F
:10164800012202FA03F3CEE72023F6E778B9990ED0
:101658000131890601F0F841A8B99A0E013202F069
:101668001F0201239340194341F00071BCE793FA2C
:10167800A3F131B1B1FA81F10131890601F0F841E4
:10168800EAE72021F8E793FAA3F343B1B3FA83F327
:10169800013303F01F03012202FA03F3E3E72023D7
:1016A800F6E722689B498A4216D09B48016801F0F8
:1016B800E076984DAA4211D0984DAD6815F0010F0B
:1016C80010D1974DAB4213D0964DAB4235D0964DC5
:1016D800AB4246D000203DE69448E7E7AD6815F0F8
:1016E800010FEED0A36F43F02003A367012031E67A
:1016F80011F4000FE8D1874B9A4204D0874B9A42E5
:1017080001D0002026E646F40003026822F0E072C9
:1017180013430360864B1B689B09864AA2FB03237D
:101728009B0901335B00019302E0019B013B01939C
:10173800019B002BF9D100200CE611F0807FC6D167
:10174800744B9A4204D0754B9A4201D0002001E6AE
:1017580046F08073026822F0E072134303600020B1
:10176800F8E511F4800F40F0AC816A4B9A4204D03E
:101778006A4B9A4201D00020ECE546F480030268E7
:1017880022F0E072134303600020E3E50E68FFF7E0
:10179800EFFAB0F5805F3ED06B68022B00F0208135
:1017A8002269B2F1004F51D063498A424ED0D4F831
:1017B800882003F01F030F21994022EA010136F027
:1017C8007F4751D1C6F3846202FA03F30B43C4F88E
:1017D80088306B689B080133A26A93423AD8FFF7B6
:1017E800C7FAB0F5805F10D8002F45D1C6F38463DF
:1017F800132B94BF002301233BB1002F47D1C6F31D
:101808008463093B012202FA03F6324669682068BC
:10181800FFF7B4FA1EE02E68484B9E420ED0484BA4
:101828009E420DD0474B9E420CD0474B9E420BD058
:1018380003F180739E42AFD1434EADE7434EABE711
:10184800434EA9E7434EA7E7434EA5E73146206834
:10185800FFF7CAFAAA6831462068FFF7DDFA2B6855
:10186800002B1FDB002075E596FAA6F212B1B2FA3A
:1018780082F2A9E72022A7E796FAA6F3002BBCD0AC
:10188800B3FA83F3132B94BF00230123B4E796FA2A
:10189800A6F32BB1B3FA83F3093B01269E40B4E7C4
:1018A8002023F9E720681B4A904216D01A490E688F
:1018B80006F0E072214FBB4211D0214FBB424DD000
:1018C800194FBB4255D01F4FBB425DD0FFF750FAAE
:1018D800B0F5005F72D000203CE51449E7E716F444
:1018E800000FEAD142F400030A6822F0E0721343C1
:1018F8000B600F4B1B689B090E4AA2FB03239B0935
:101908005B00019302E0019B013B0193019B002BCB
:10191800F9D1DBE7008002420813024600100246B4
:10192800000008CE000004CA0100008008830242BB
:1019380008000020632D3E0510000080002000B63E
:10194800004000BA001000B2000020D6000040DAC3
:10195800000080DE01000081000010D216F0807FB8
:10196800AED142F080730A6822F0E07213430B6034
:10197800ACE716F4800FA6D142F480030A6822F07F
:10198800E07213430B60A1E716F4800F9ED1514B10
:1019980098429BD142F480030A6822F0E072134314
:1019A8000B60FFF7E5F9B0F5805F8FD82268D2F8B1
:1019B800D03043F00103C2F8D03087E72A68464B9D
:1019C8009A4201D00020C5E416F4800F7BD122682A
:1019D800D2F8D03043F00103C2F8D0300020B9E487
:1019E8002369B3F1004F02D03C4A934209D12068E1
:1019F800826AC6F38463012101FA03F322EA03032E
:101A080083622B68002B01DB0020A3E42168344AA1
:101A1800914221D0334A166833498B421FD033494B
:101A28008B422AD032498B422FD032498B421DD16A
:101A380006F0C073116821F0E0710B431360FFF7E3
:101A480097F9B0F5805F11D82268D2F8D03043F00A
:101A58000103C2F8D03009E002F54272DBE706F074
:101A6800A073116821F0E0710B431360FFF780F950
:101A7800B0F5005F11D000206CE406F44003116853
:101A880021F0E0710B431360F0E706F0C0731168B2
:101A980021F0E0710B431360E8E72A680E4B9A4285
:101AA80001D0002056E416F4800F0ED12268D2F837
:101AB800D03043F00103C2F8D03000204AE40020BF
:101AC80048E4002046E4002044E4002042E40220E8
:101AD80043E400BF00100246000020D71000008039
:101AE8000080024208130246000008CE000004CA23
:101AF80001000080001000B238B503689A6812F03F
:101B0800010F49D104469968254A114238D101226A
:101B18001A600268936823F0004323F03F0343F000
:101B280001039360036A1BB102681E4B9A4235D0C9
:101B3800FFF704F9054623681A6812F0010F29D146
:101B48009A6812F0010F07D19A6822F0004222F039
:101B58003F0242F001029A60FFF7F0F8431B022BA4
:101B6800E9D923681B6813F0010FE4D1A36F43F090
:101B78001003A367E36F43F00103E36701200CE060
:101B8800836F43F010038367C36F43F00103C36798
:101B9800012002E0002000E0002038BD0020FCE722
:101BA8003F0000800010024670B59CB004460068F3
:101BB800806810F0040F40F092800E46154694F8A5
:101BC8007430012B00F08E80012384F87430204695
:101BD800FFF792FF00287ED1A36F23F4706323F0F0
:101BE800010343F48073A3672268404B9A4249D0AB
:101BF800A36F13F4805F42D0E36F23F00603E3671B
:101C0800236F3B4A1A66236F3A4A5A66236F3A4A49
:101C18009A6623681C221A60002384F874302268AC
:101C2800536843F0100353602368304A93422CD022
:101C3800206F036D13F0800F30D0436F002B46D018
:101C48001968002945D001A800F0CFFD00284BD124
:101C5800079B022B1ED0012B1ED0236F5B6F1B68C6
:101C68009D6023684033226F526F1268D360236FE0
:101C78005B6F1B681E61206F00F045FD19E00023B3
:101C8800E367BDE70023E367BAE7DA6842F00102D9
:101C9800DA60CDE7AD00E0E76D00DEE78369022B8F
:101CA80011D0012B11D021682B463246403100F06B
:101CB800B6F82268936823F0004323F03F0343F00B
:101CC800040393600CE0AD00EDE76D00EBE7012045
:101CD800EFE70120EDE7002384F8743000E00220EC
:101CE8001CB070BD0220FBE70120F9E70010024696
:101CF800891200087D12000811130008002807DB6C
:101D080000F01F02400901239340024A42F82030A4
:101D1800704700BF00E100E0002808DB0901C9B2F4
:101D280000F1604000F5614080F80013704700F052
:101D38000F000901C9B2014B1954704714ED00E0B6
:101D480000B500F00700C0F1070CBCF1040F28BF74
:101D58004FF0040C031D062B0FD9C31E4FF0FF3E96
:101D68000EFA0CF021EA000199400EFA03FE22EA6D
:101D78000E0241EA02005DF804FB0023EEE70000D2
:101D8800074AD36823F4E0631B041B0C000200F429
:101D9800E060034343F0BF6343F40033D36070470C
:101DA80000ED00E010B50446054BD868C0F30220EA
:101DB800FFF7C6FF01462046FFF7AEFF10BD00BF84
:101DC80000ED00E008B5FFF799FF08BD0138B0F154
:101DD800807F0BD24FF0E0235861054AF02182F84A
:101DE80023100020986107221A617047012070476C
:101DF80000ED00E030B40568AC6C4FEA144C4FEAD3
:101E08000C4C9BB24CEA0303AB6403684FF4FE44EA
:101E1800DC600368D96403681A6530BC7047002821
:101E280036D010B5044690F84C00012832D0012075
:101E380084F84C0094F85400C0B2012806D040231E
:101E4800A365002384F84C30012010BD022084F8DB
:101E580054000020A0652046FFF7CCFF2268536994
:101E680043F4BA435361636E23B12268536943F460
:101E780000735361236F23B12268536943F40053FD
:101E880053612268536943F0010353610020DCE782
:101E9800012070470220D8E710B50446026822F4F2
:101EA8007F6020F00F00C2F30B03503BC3F3C41351
:101EB800012101FA03F3C168194200F0D6801369C1
:101EC80013F4806F0AD0536913F4806F06D04FF46F
:101ED8008063D360A36D43F00103A36523681A6987
:101EE80012F4006F0AD05A6912F4006F06D04FF44A
:101EF8000062DA60A36D43F00203A36523681A69E0
:101F080012F4805F0AD05A6912F4805F06D04FF449
:101F18008052DA60A36D43F00403A36523681A694D
:101F280012F4804F0AD05A6912F4804F06D04FF449
:101F38008042DA60A36D43F00803A36523681A6939
:101F480012F4007F0AD05A6912F4007F06D04FF4C9
:101F58000072DA60636E0BB12046984723681A69ED
:101F680012F4005F12D05A6912F4005F0ED04FF4D9
:101F78000052DA6094F85430DBB2042B1FD00523EA
:101F880084F85430236F0BB12046984723681A69A8
:101F980012F4807F4CD05A6912F4807F48D0226DA9
:101FA80012F0800F34D0DA6F002A36D19B6C002BE8
:101FB80033D1012384F85430626F13732DE0226803
:101FC800536923F4005353612268536943F00203B1
:101FD800536123685B6913F0010F15D0032384F85C
:101FE8005430236D13F0800F05D0636F01221A73EC
:101FF800236800229A64002384F84C30E36E002B97
:1020080033D02046984730E0012384F85430E8E77D
:102018009B6C13B9012384F8543023684FF4407241
:10202800DA60002384F84C30236E0BB120469847C1
:10203800A36DD3B12268536943F002035361236847
:102048005B6913F0010F11D0032384F85430236D1A
:1020580013F0800F02D0636F01221A73002384F8F3
:102068004C30A36E0BB12046984710BD012384F86D
:102078005430ECE7E8B1036823F47F6222F00F02E2
:10208800C3F30B03503BC3F3C4130120984011F072
:10209800100F10D001F01101112905D0536823EA5F
:1020A80000035360002070475368034353600020C7
:1020B800704701207047002070470000816BC36B98
:1020C80019430368674A934200F08D8002F18052F9
:1020D800934200F0888002F170428032934200F00F
:1020E800828002F1805293427DD002F170428032A8
:1020F800934278D002F18052934274D002F1704238
:10210800803293426FD002F1805293426BD002F139
:1021180070428032934266D002F18052934262D07C
:1021280002F17042803293425DD002F180529342B4
:1021380059D002F170428032934254D002F1805259
:10214800934250D002F17042803293424BD002F158
:102158008052934247D002F170428032934242D07B
:1021680002F1805293423ED002F170428032934293
:1021780039D002F18052934235D002F17042803258
:10218800934230D002F1805293422CD002F1704237
:102198008032934227D002F18052934223D002F139
:1021A8007042803293421ED002F1805293421AD07C
:1021B80002F170428032934215D002F1805293426C
:1021C80011D002F17042803293420CD002F1805259
:1021D800934208D002F170428032934203D002F158
:1021E8008052934201D1026C11435A6922F443028E
:1021F8000A435A610268002313640268416C5164FF
:10220800026893640268D364026813650368164A17
:1022180093421ED002F1805293421AD002F17042CA
:102228008032934215D002F18052934211D002F1CC
:102238007042803293420CD002F18052934208D00F
:1022480002F170428032934203D002F180529342ED
:1022580003D100225A6503689A6503680022DA6789
:10226800704700BF500002405006024010B4436956
:10227800C2691343C26B1343026913438269134350
:102288000B60026812F0200F16D0C26A846B2243DA
:10229800846A04F1FF3C4FEA0C5C0CF07C7C42EA57
:1022A8000C02446A04F1FF3C4FEA0C1C0CF47C7CE1
:1022B80042EA0C0213430B60036B426822F4C072BB
:1022C8009205920D13434B60C268B2F5806F64D0DB
:1022D800B2F5007F69D0436C4BB1026C1343826C3A
:1022E800120402F47C1213434A6813434B60B0F89B
:1022F80068308B60026812F0020F20D0C26C02F1C5
:10230800FF3C434A02EA0C4213438B60026D002AE9
:102318004FDB8B60436D002B4FDB8B6823F0005342
:102328008B60836D002B4DDB8B6823F080438B60C3
:10233800C36D002B4BDB8B6823F000438B60036E6F
:10234800CB60436E0B61036813F0020F1AD0036D64
:10235800002B41DBC3F30C034B61436D002B40DBC7
:102368004A692C4C04EA03431A434A61836D002BE3
:102378003FDB9BB28B61C36D002B3EDB8A6942EA6F
:1023880003428A6103680B6213F0020F3BD043F4E7
:10239800E0630B625DF8044B7047026812F0200F8F
:1023A80099D043F480634B6095E743F400734B6026
:1023B80091E743F080538B60ACE78B6843F00053A0
:1023C8008B60AEE78B6843F080438B60B0E78B6827
:1023D80043F000438B60B2E75B42C3F30C034B61ED
:1023E800BBE75B424A690B4C04EA03431A434A6160
:1023F800BCE75B429BB28B61BDE75B428A6942EAFC
:1024080003428A61BEE743F4A0630B62C2E700BFE0
:102418000000FF070000FF1F10B40B6ADAB2026069
:102428000A6802F0080202610A6802F400224261A6
:102438000A6802F0030282610A6802F44032C2614B
:102448000A68C2F30512013242620A68C2F30552F1
:10245800013282620A6802F04022C262384A0C687D
:10246800224082630A6802F4C052C2634A6812F4C6
:10247800007F4BD04FF400724260C2604A6802F499
:10248800006282604A6802F4404202644A6802F0CC
:1024980040724264CA8802F03F0282644A6802F0CD
:1024A800404202630A89826613F002033CD04A89DB
:1024B800C2F30A020132C264CA6802660A69426645
:1024C800002B34D08A8AC2F30C020265CB8AC3F38C
:1024D8000C0343658C6814F0805F01D0524202659A
:1024E8008A6812F0005F01D05B4243650B8B8365FD
:1024F8004A8BC2658C6814F0804F01D05B428365BB
:102508008B68002B18DA5242C26515E002F07F0290
:1025180042604A6812F4806F03D04FF48062C26050
:10252800ACE70022C260A9E70122C264C4E7002325
:10253800036543658365C3655DF8044B704700BF59
:102548000020000C844640EA0103134330B183EABB
:102558000C03B3F5803F0AD20020704709B18C46BE
:10256800F5E70AB19446F2E74FF0000CEFE70120D7
:10257800704768B190F8203019B191F8201099424D
:1025880010D18AB192F820209A420FD100207047CA
:1025980011B191F82030F0E712B192F82030EBE752
:1025A8000023E9E7022070470020704703207047A6
:1025B800036A13F0020F06D009B1064B0B6042B153
:1025C80007231360704709B1034B0B600AB1052359
:1025D80013607047000001FE000001F830B5844622
:1025E80015680C46E1B14FF0000E7146734627E0BE
:1025F800BCF8020001EB004050F825008E464FF66B
:10260800FC7101400133DCF8080098422AD9002BFC
:10261800EED1DCF8001021F003010904090CF1E700
:102628004FF0000E71467346EDE7BCF8020001EB6F
:10263800004050F825008E464FF6FC7101400133EA
:10264800DCF8080098420DD94FF6FC70204088420B
:1026580008D0002BE9D1DCF8001021F003010904AF
:10266800090CECE72CB124F003042404240C8C425C
:1026780018D19360BCF802304EEA03435360BCF8AB
:10268800023041EA0341D16051F8250058B120F0E9
:1026980003000004000CBCF8023040EA034010615B
:1026A800002000E0012030BD38B50446FEF746FBA7
:1026B8003CB305462268002384F84C30022384F892
:1026C8005430536943F00603536123685B6913F080
:1026D800010F0BD0FEF732FB431B052BF5D9102356
:1026E800A365032384F85430012009E02046FFF74E
:1026F800E5FCA36C23650020A065012384F8543011
:1027080038BD0120FCE700285ED010B582B0044631
:10271800416F00295AD090F85430DBB202685269F0
:1027280002F48032012B03D0022B46D1002A44D078
:1027380094F85430DBB2012B07D02268536943F078
:1027480001035361002002B010BD94F84C30012BF6
:102758003ED0012384F84C30022384F854300B73A4
:102768000023A365626F13612268536943F4BA4377
:102778005361636E23B12268536943F40073536154
:10278800236F23B12268536943F400535361636F85
:10279800002201A91868FFF70BFF636F22685B88A6
:1027A8001B041360636F1B6823F003031B041B0CDB
:1027B800226801990B43D367BFE74023A365002331
:1027C80084F84C300120BEE7012070470120BAE7A9
:1027D8000220B8E728B108B529B1FFF747FD002066
:1027E80008BD012070470120FAE728B108B529B1D2
:1027F800FFF712FE002008BD012070470120FAE70C
:10280800002850D070B588B00C46054600294CD039
:102818004369012B39D0066800223046FFF792FE43
:10282800002836D1002221463046FFF7A2FE0028B4
:1028380033D1002E35D006AA07A92046FFF7B8FEE7
:10284800069B019301AA00212846FFF7C7FE6B6883
:1028580043B123F003031B041B0C079A1343069A86
:1028680044F8223024F003042404240C079B1C435E
:10287800049B069A43F82240AB680133AB60002002
:10288800286101232B7308B070BD04230361012064
:10289800F9E705232B610120F5E704232B610120CB
:1028A800F1E72C60E8E7012070470120EBE70028FA
:1028B80039D030B589B00446006840B1636853B177
:1028C800984232D004232361012009B030BD02238D
:1028D80023610120F9E76369012B20D002232373C8
:1028E8000025256106AA07A9FFF762FE069B01934A
:1028F80001AA29462046FFF771FE236823F0030347
:102908001B041B0C079A1343049A069942F82130BA
:10291800236863602561012323732846D5E70423D0
:1029280023610120D1E7012070470020CDE7000096
:10293800844600285AD000295AD090F85430DAB288
:1029480090F85430DBB2022B37D0052A35D00B7BF8
:10295800DBB2022B39D00368264A934223D002F116
:10296800805293421FD002F17042803293421AD0B3
:1029780002F18052934216D002F1704280329342A3
:1029880011D002F1805293420DD002F17042803290
:10299800934208D002F18052934204D00B681B6A1C
:1029A80013F0020F14D1DCF85030812B14D04B688F
:1029B800A3B104230B61012070474023CCF85830A1
:1029C80000238CF84C3001207047012008617047C3
:1029D80003230B61012070474B681BB1CCF87410BE
:1029E8000020704704230B610120704701207047C5
:1029F8000120704750060240F0B504460023D9E094
:102A0800056825EA0C054C6804F001049C402C4339
:102A180004607C4D55F8334005EBC3056D68EF083D
:102A2800083754F8276005F0070C4FEA8C0C4FF074
:102A38000F0E0EFA0CFE26EA0E0E0B2606FA0CF600
:102A480046EA0E0644F8276027684FEA450C032635
:102A580006FA0CF627EA0607022606FA0CF63E43A3
:102A6800266021E0DE08083650F8265003F00707F4
:102A7800BF004FF00F0C0CFA07FC25EA0C0C0D698F
:102A880005F00F05BD4045EA0C0540F826502668BC
:102A98005F000325BD4026EA05064D6805F00305DD
:102AA800BD40354325601D464E6806F1FF3CBCF12C
:102AB800010F03D9112E01D0122E1CD1A6684FEA9E
:102AC800450E4FF0030C0CFA0EFC26EA0C0CCE68EF
:102AD80006FA0EF646EA0C06A66066684FF0010C88
:102AE8000CFA05FC26EA0C0C4E68C6F30016AE403C
:102AF80046EA0C0666604E68032E0CD0E6686D0048
:102B08004FF0030C0CFA05FC26EA0C0C8E68AE405C
:102B180046EA0C06E6604D6815F0805F49D09E08CD
:102B2800394F183657F8265003F0030C4FEACC0CEF
:102B38004FF00F0E0EFA0CFE25EA0E0E334D05EA85
:102B4800902505FA0CF545EA0E0547F826503E682B
:102B58006FEA020C26EA02074D6815F4801F01D0BF
:102B680042EA0607284E376076680CEA06074D6881
:102B780015F4001F01D042EA0607234E7760D6F805
:102B880084600CEA06074D6815F4003F01D042EA5C
:102B980006071D4EC6F88470D6F880600CEA060554
:102BA8004F6817F4803F01D042EA0605164AC2F87A
:102BB800805001330A6832FA03F521D04FF0010C36
:102BC8000CFA03FC1CEA0202F3D0114DA8423FF4B0
:102BD80017AF4D68022D3FF445AF122D3FF442AFB9
:102BE80026684FEA430C032707FA0CF726EA07067C
:102BF80005F0030505FA0CF5354325601D4653E736
:102C0800F0BD00BFE8B20008002002467F7F2F0019
:102C1800000002460AB18161704781627047000076
:102C2800074B1B6813F0010F07D1054A136823F0FF
:102C3800040303431360002070470120704700BF5E
:102C480000040340034A136843F0010313600020A3
:102C5800704700BF00040340244BDB6B03F4403390
:102C6800834219D0B0F5803F20D9204AD36823F495
:102C7800E023034343F48023D3601D4B1B681D4AA4
:102C8800A2FB03139B09322101FB03F3A2FB0323DD
:102C98009B0901331A4611E0B0F5803F04D9134A65
:102CA800D36843F48023D360002070470F4AD36869
:102CB80023F4E0230343D360DFE7013A0B49C968F3
:102CC80011F4004F01D1002AF7D112B9032070473F
:102CD800013B064AD26B12F4004F01D1002BF7D109
:102CE8000BB1002070470320704700BF0008024660
:102CF80008000020D34D6210024BD86B00F440301E
:102D0800704700BF00080246174B1B68174AA2FB12
:102D180003139B09322101FB03F3A2FB03239B0945
:102D2800013380B912498A6822F002028A6000E001
:102D3800013B0F4AD26B12F0020F01D0002BF7D1E2
:102D480083B1002070470A498A6842F002028A600B
:102D580000E0013B064AD26B12F0020FF0D1002BC3
:102D6800F7D1EDE70320704708000020D34D62102B
:102D780000080246024A136943F000531361704782
:102D880000080246024A136943F080431361704702
:102D980000080246024AD36A43F00103D36270472F
:102DA8000008024630B583B004462D4BD3F8943062
:102DB80013F0040F0FD0FFF79FFFB0F5403F20D06E
:102DC800B0F5003F1DD0B4F1805F2CD2B0F5803F44
:102DD80040D0012025E0224DD5F8943043F004037B
:102DE800C5F89430D5F8943003F004030193019B9F
:102DF800FFF782FFD5F8943023F00403C5F8943028
:102E0800DBE7B4F1805F23D20120164A136823F070
:102E18000F0303431360136803F00F0383421DD1AC
:102E2800002003B030BDB4F1005F05D9A0B9B4F1FA
:102E3800405FEAD80120E8E7B4F1805F01D00120C3
:102E4800E3E7B0F5803F01D00220DEE70120DCE7B0
:102E58000020DAE70320D8E70020D6E70120E0E7E2
:102E6800000C0246002002405B4AD369926A13F0C4
:102E78000C0310D002F003020C2B0AD0564AD26978
:102E880002F00C02042A1ED0082B1FD00020014695
:102E980010E0012AF2D1504A926812F4000F0CD1C6
:102EA8004D4AD2F8F420C2F303324C4951F82210AB
:102EB8003BB100200C2B0CD07047474A9268120F88
:102EC800F3E70846F6E746480021F3E744480021BF
:102ED800F0E710B4404B9A6A02F00302986AC0F314
:102EE80003209C6AC4F3001C9B6BC3F3CC030CFB4C
:102EF80003F307EE903AB8EE677A0130022A20D041
:102F0800032A4CD007EE901AF8EE676A07EE900A8B
:102F1800F8EE677A86EEA76A2F4B5B6BC3F308035C
:102F280007EE903AF8EE677ADFED2E6A27EE267AFA
:102F380077EE877AB7EE007A77EE877A66EE276AB9
:102F48001BE007EE900AF8EE677A9FED276AC6EE57
:102F5800276A214B5B6BC3F3080307EE903AF8EE40
:102F6800677A9FED206A27EE067A77EE877AB7EEC2
:102F7800007A77EE877A66EEA76A174B5B6BC3F326
:102F88000663013307EE903AB8EE677AC6EE877AA1
:102F9800FCEEE77A17EE900A5DF8044B704707EEEF
:102FA800900AF8EE677A9FED106AC6EE276A0A4B18
:102FB8005B6BC3F3080307EE903AF8EE677A9FED70
:102FC800096A27EE067A77EE877AB7EE007A77EE07
:102FD800877A66EEA76AD0E7000C0246B0B300080D
:102FE8000024F400000000390024744B002800F08D
:102FF8007181F0B583B00D4604467F4B1B6803F022
:103008000F038B420BD27C4A136823F00F030B4348
:103018001360136803F00F038B4240F05D8123684F
:1030280013F0100F0CD06269744B5B6A03F07003E5
:103038009A4205D971494B6A23F070031A434A62D0
:10304800236813F0080F0ED022696C4B1B6A1B090A
:1030580003F070039A4206D968490B6A23F4E063C7
:1030680043EA02130B62236813F0040F0CD0E268E2
:10307800624B1B6A03F070039A4205D95F490B6AD9
:1030880023F070031A430A62236813F0020F0CD06E
:10309800A2685A4B1B6A03F00F039A4205D9574995
:1030A8000B6A23F00F031A430A62236813F0010F17
:1030B80000F0A8806368032B0AD0022B61D0002B94
:1030C80066D14E4B1B6813F0040F26D10120FFE098
:1030D8004A4BD3F8943013F0040F0ED1474BD3F872
:1030E800942042F00402C3F89420D3F8943003F0FB
:1030F80004030193019B012700E00027FDF71EFE52
:1031080006463F4BDB6813F4802F26D18FBB3B4B21
:103118001B6813F0007F00F0E180384AD36923F080
:10312800030361680B43D361FDF708FE0646636835
:10313800032B34D0022B41D0002B4ED02F4BDB6910
:1031480003F00C03042B5DD0FDF7F8FD801B41F262
:1031580088339842F2D90320BAE0294BDB6813F48C
:10316800804FD3D1FDF7EAFD801B0228F5D9032053
:10317800AEE0224AD2F8943023F00403C2F8943027
:10318800C5E71E4B1B6813F4003FC6D101209FE022
:103198001A4B1B6813F4806FBFD1012098E0174BBE
:1031A800DB6903F00C030C2B2CD0FDF7C7FD831B48
:1031B80041F288329342F2D9032089E00F4BDB6950
:1031C80003F00C03082B1DD0FDF7B8FD801B41F25E
:1031D80088339842F2D903207AE0084BDB6913F070
:1031E8000C0F0FD0FDF7AAFD801B41F288339842DF
:1031F800F3D903206CE000BF00200240000C024617
:1032080000080246236813F0020F0CD0A268354B61
:103218001B6A03F00F039A4205D232490B6A23F066
:103228000F031A430A62304B1B6803F00F03AB42CB
:103238000AD92D4A136823F00F032B431360136830
:1032480003F00F03AB424BD1236813F0040F0CD0EB
:10325800E268244B1B6A03F070039A4205D22149A5
:103268000B6A23F070031A430A62236813F0080FED
:103278000ED022691B4B1B6A1B0903F070039A428C
:1032880006D218490B6A23F4E06343EA02130B627F
:10329800236813F0100F0CD06269124B5B6A03F0BD
:1032A80070039A4205D20F494B6A23F070031A4300
:1032B8004A62FFF7D9FD0B4B1B6A03F00F030B4A59
:1032C800D35CD8400A4B18600A4B1868FDF7DAFC43
:1032D80003B0F0BD012070470120F9E70120F7E7AE
:1032E8000120F5E7000C024600200240F0B3000878
:1032F800080000200400002008B5FFF7B5FD054BC5
:103308001B6A03F00F03044AD35CD840034B1860D0
:1033180008BD00BF000C0246F0B3000808000020FA
:10332800002800F02985F0B585B004469C4BDD697E
:1033380005F00C059E6A06F00306036813F0100FEB
:1033480000F09480EDB10C2D19D0E369002B00F04A
:103358001181934A136843F001031360FDF7EEFCF3
:1033680007468F4B1B6813F0040F40F0CD80FDF724
:10337800E5FCC01B0228F4D9032000F000BD012E93
:10338800E3D1E369002B00F0F984606A844B9B6801
:1033980013F4000F1CD0824B9B6803F070439842D3
:1033A80044D9E5B17E4A936843F400039360936877
:1033B80023F07043616A0B439360636AB3F1404F33
:1033C80014D3D36823F01F03216A0B43D36044E06E
:1033D800734BD3F8F4301B0403F07043DFE7FFF7B7
:1033E800E1FC0028DED0012000F0C9BC002B0BDB7B
:1033F800B3F1804F11D36A4AD36823F4F843216AA2
:1034080043EA8123D36028E0654AD36823F47873BC
:10341800216A43EA4113D3601FE0614AD36823F469
:103428007823216A43EAC133D36016E05C4A936883
:1034380043F400039360936823F07043616A0B437D
:103448009360636AB3F1404F36D3D36823F01F0308
:10345800216A0B43D360002D4ED0FFF74DFF514B2F
:103468001868FDF70FFC002840F08984236813F0E2
:10347800010F00F0A080082D00F099800C2D00F0BD
:1034880093806368B3F5803F00F0B680B3F5A02F52
:1034980000F0C880B3F5A81F00F0D280404B1A682E
:1034A80022F480321A601A6822F480221A601A689C
:1034B80022F480121A60A4E0002B0BDBB3F1804FDA
:1034C80011D3374AD36823F4F843216A43EA8123A6
:1034D800D360C0E7324AD36823F47873216A43EA99
:1034E8004113D360B7E72E4AD36823F47823216ABF
:1034F80043EAC133D360AEE7606AFFF753FC0028A4
:10350800ABD0012000F03BBC254A936843F400038C
:103518009360936823F07043616A0B439360636A16
:10352800B3F1404F06D3D36823F01F03216A0B433E
:10353800D3609BE7002B0BDBB3F1804F11D3184A04
:10354800D36823F4F843216A43EA8123D3608DE7E3
:10355800134AD36823F47873216A43EA4113D3608A
:1035680084E70F4AD36823F47823216A43EAC133F6
:10357800D3607BE70A4A136823F001031360FDF761
:10358800DDFB0746064B1B6813F0040F3FF46EAFD4
:10359800FDF7D4FBC01B0228F4D90320EFE300BFDA
:1035A800000C024604000020032E7FF46AAF636813
:1035B800002B00F0E683236813F0020F6BD0042D74
:1035C8005DD00C2D59D0E368002B00F0BF80AA4ACB
:1035D800136843F480731360FDF7B0FB0546A64BF0
:1035E8001B6813F4806F40F0A880FDF7A7FB401B11
:1035F8000228F4D90320C2E39F4A136843F48033B6
:103608001360636853B3FDF799FB07469A4B1B6831
:1036180013F4003FCFD1FDF791FBC01B6428F5D907
:103628000320ACE3944B1A6842F480221A601A68AB
:1036380022F480121A601A6842F480321A60E0E7B5
:103648008D4B1A6842F480221A601A6842F480127C
:103658001A601A6842F480321A60D2E7FDF76EFBEE
:103668000746854B1B6813F4003FA4D0FDF766FBA3
:10367800C01B6428F5D9032081E3022EA3D1E36897
:10368800002B00F080837C4A136923F4F813216926
:1036980043EA01431361236813F0080F00F0AF8079
:1036A800754BD3F8943013F0040F63D1724BD3F8F1
:1036B800942042F00402C3F89420D3F8943003F025
:1036C80004030193019B01256C4B9B6A13F0010FC6
:1036D80052D06369002B7AD0674BD3F8F030A169D8
:1036E80003F08052914211D003F04062B2F1006FB2
:1036F80000F04B8313F0806F52D15F4AD2F8F0305C
:1037080023F08053A1690B43C2F8F0305A4AD2F82B
:10371800F03043F08063C2F8F030FDF70FFB064647
:10372800554BD3F8F03013F0006F67D1FDF706FB67
:10373800801B0528F4D9032021E34F4A136923F499
:10374800F813216943EA01431361A4E74A4A13685D
:1037580023F480731360FDF7F1FA0546464B1B68A6
:1037680013F4806F97D0FDF7E9FA401B0228F5D9CA
:10377800032004E30025A7E7404A936A43F00103C6
:103788009362FDF7DBFA06463C4B9B6A13F0010F88
:103798009FD1FDF7D3FA801B0228F5D90320EEE26A
:1037A800354AD2F8F03023F0A053C2F8F030FDF7D4
:1037B800C5FA0646304BD3F8F03013F0006F9CD0B2
:1037C800FDF7BCFA801B0528F4D90320D7E22A4A62
:1037D800D2F8F03023F0A053C2F8F030FDF7AEFA7B
:1037E8000646254BD3F8F03013F0006F06D0FDF7EE
:1037F800A5FA801B0528F4D90320C0E295BB2368ED
:1038080013F0040F00F0D9801B4BD3F8943013F059
:10381800040F2FD1184BD3F8942042F00402C3F8B8
:103828009420D3F8943003F004030293029B0125FB
:10383800124B9B6A13F0010F22D0A36813F0010FFB
:103848003AD013F0040F2FD00B4BD3F8F02042F0EE
:103858000402C3F8F020D3F8F02042F00102C3F8C4
:10386800F02036E0044AD2F8943023F00403C2F87A
:103878009430C4E70025DBE7000C02460008024646
:10388800A84A936A43F001039362FDF757FA064684
:10389800A44B9B6A13F0010FCFD1FDF74FFA801BA1
:1038A8000228F5D903206AE29F4AD2F8F03043F0A3
:1038B8000103C2F8F0300CE09B4BD3F8F02022F063
:1038C8000102C3F8F020D3F8F02022F00402C3F874
:1038D800F020A368002B41D0FDF730FA0646924B42
:1038E800D3F8F03013F0020F08D1FDF727FA801B48
:1038F80041F288339842F2D9032040E2A36813F0DA
:10390800800F15D0884AD2F8F03043F08003C2F80F
:10391800F030854BD3F8F03013F4006F4CD1FDF73D
:103928000DFA801B41F288339842F2D9032026E22F
:103938007D4AD2F8F03023F08003C2F8F0307A4B99
:10394800D3F8F03013F4006F36D0FDF7F7F9801B89
:1039580041F288339842F2D9032010E2FDF7EEF9DC
:103968000646714BD3F8F03013F0020F08D0FDF77C
:10397800E5F9801B41F288339842F2D90320FEE131
:10398800694BD3F8F03013F0800F15D0664AD2F89F
:10399800F03023F08003C2F8F030634BD3F8F030F6
:1039A80013F4006F08D0FDF7C9F9801B41F2883382
:1039B8009842F2D90320E2E1CDB9236813F0200F31
:1039C80031D0E36ADBB1584A136843F4805313607B
:1039D800FDF7B4F90546544B1B6813F4005F22D178
:1039E800FDF7ACF9401B0228F5D90320C7E14E4A80
:1039F800D2F8943023F00403C2F89430DDE74A4A41
:103A0800136823F480531360FDF798F90546464B75
:103A18001B6813F4005F06D0FDF790F9401B0228DD
:103A2800F5D90320ABE1236813F0800F29D0236B6D
:103A38009BB13D4A136843F480431360FDF77EF958
:103A48000546394B1B6813F4004F1AD1FDF776F978
:103A5800401B0228F5D9032091E1334A136823F467
:103A680080431360FDF76AF905462F4B1B6813F472
:103A7800004F06D0FDF762F9401B0228F5D9032054
:103A88007DE1236813F0400F64D0636B002B4DD0A9
:103A9800254A936843F400039360936823F07063A6
:103AA800A16A0B439360636AB3F1404F19D3D3689B
:103AB80023F01F03216A0B43D3601B4A136843F0AA
:103AC80010031360FDF73AF90546174B1B6813F00E
:103AD800200F3FD1FDF732F9401B0228F5D903200A
:103AE8004DE1002B0BDBB3F1804F11D30E4AD368A5
:103AF80023F4F843216A43EA8123D360DDE70A4AC5
:103B0800D36823F47873216A43EA4113D360D4E776
:103B1800054AD36823F47823216A43EAC133D36082
:103B2800CBE700BF00080246000C0246A14A136812
:103B380023F010031360FDF701F905469D4B1B6840
:103B480013F0200F06D0FDF7F9F8401B0228F5D92D
:103B5800032014E1A36B002B00F01981954AD26968
:103B680002F00C020C2A00F0BB80022B14D0914A00
:103B7800136823F080731360FDF7E0F804468D4B5B
:103B88001B6813F0007F00F0A280FDF7D7F8001B38
:103B98000228F4D90320F2E0864A136823F08073E0
:103BA8001360FDF7CBF80546824B1B6813F0007FC6
:103BB80006D0FDF7C3F8401B0228F5D90320DEE044
:103BC8007C4BD3F8943013F0040F6CD1794BD3F8B5
:103BD800942042F00402C3F89420D3F8943003F000
:103BE80004030393039B0125734BDB6813F4802FB5
:103BF8005BD10026704AD36823F48023D3606D4BD1
:103C08009A6A22F47F4222F00302E16B206C0138A9
:103C180041EA0021606C01430A439A625A6B674883
:103C28001040A26C013AC2F30802E16C0139490262
:103C380089B20A43216D0139090401F4FE010A43DE
:103C4800616D0139090601F0FE410A4310435863CA
:103C58009A6A22F010029A62E26DD2009A639A6A16
:103C680042F010029A629A6A22F00C02A16D0A438D
:103C78009A62E6B90DBB4F4B9A6A42F480229A6267
:103C88001A6842F080721A60FDF758F80446494BEA
:103C98001B6813F0007F18D1FDF750F8001B0228AD
:103CA800F5D903206BE000259EE70126A2E7424AEA
:103CB800D36843F48023D360DCE73E4AD2F89430DB
:103CC80023F00403C2F89430D5E7002057E0394ABE
:103CD800936A23F4E02323F00303936200204EE069
:103CE800344A916A506B012B53D001F00303E26B05
:103CF800934250D1C1F30322236C013B9A424CD129
:103D080001F47041636C994249D1C0F30802A36C75
:103D1800013B9A4245D1C0F34622E36C013B9A42EB
:103D280041D1C0F30642236D013B9A423DD1C0F315
:103D38000660636D013B984239D11E4B9B6BC3F300
:103D4800CC03E26D934201D1002018E0194A936A2E
:103D580023F010039362FCF7F1FF0546FCF7EEFF32
:103D6800A842FBD0E26DD200124B9A639A6A42F0E5
:103D780010029A62002002E001207047012005B07D
:103D8800F0BD0120FBE70120F9E70120F7E700205B
:103D9800F5E70120F3E70120F1E70120EFE7012033
:103DA800EDE70120EBE70120E9E70120E7E7012043
:103DB800E5E700BF000C02460008024600008080CC
:103DC80038B50546354A136823F080531360FCF76D
:103DD800B5FF0446314B1B6813F0005F06D0FCF7B3
:103DE800ADFF001B0228F5D9032038BD2B4B1A6BF9
:103DF80022F4706222F0030229686868013841EAF7
:103E080000210A431A635A6C25481040AA68013AEF
:103E1800C2F30802E9680139490289B20A432969EB
:103E28000139090401F4FE010A43696901390906E7
:103E380001F0FE410A43104358641A6B22F00C0249
:103E4800A9690A431A631A6B296A0A431A631A6B27
:103E580022F010021A639A6C22F47F4222F0F802D0
:103E6800E96942EAC1029A641A6B42F010021A63C5
:103E78001A6842F080521A60FCF760FF0446074B4C
:103E88001B6813F0005F06D1FCF758FF001B0228DF
:103E9800F5D90320A9E70020A7E700BF000C0246D8
:103EA8000000808038B50546354A136823F08063E2
:103EB8001360FCF743FF0446314B1B6813F0006F97
:103EC80006D0FCF73BFF001B0228F5D9032038BDBC
:103ED8002B4BDA6A22F4706222F0030229686868C0
:103EE800013841EA00210A43DA62DA6B25481040BA
:103EF800AA68013AC2F30802E9680139490289B29D
:103F08000A4329690139090401F4FE010A43696970
:103F18000139090601F0FE410A431043D863DA6A01
:103F280022F00C02A9690A43DA62DA6A296A0A43AA
:103F3800DA62DA6A22F01002DA621A6C22F47F423C
:103F480022F0F802E96942EAC1021A64DA6A42F028
:103F58001002DA621A6842F080621A60FCF7EEFE1C
:103F68000446074B1B6813F0006F06D1FCF7E6FE0A
:103F7800001B0228F5D90320A9E70020A7E700BF06
:103F8800000C0246000080802DE9F04182B0044612
:103F9800036813F0010F08D0AC4AD2F8E03023F0E0
:103FA8000303016D0B43C2F8E030236813F0020FDE
:103FB80008D0A64AD2F8E03023F00C03616D0B4319
:103FC800C2F8E030236813F0040F08D09F4AD2F8F3
:103FD800E03023F03003A16D0B43C2F8E0302368D2
:103FE80013F0080F08D0994AD2F8E03023F0C00344
:103FF800E16D0B43C2F8E030236813F0100F08D0CE
:10400800924AD2F8E03023F44073216E0B43C2F891
:10401800E030236813F0200F08D08C4AD2F8E8303B
:1040280023F00703616E0B43C2F8E830236813F0EE
:10403800400F08D0854AD2F8E03023F44063A16EDF
:104048000B43C2F8E030236813F0800F08D07F4A92
:10405800D2F8E03023F44053E16E0B43C2F8E0306D
:10406800236813F4807F08D0784AD2F8E83023F028
:10407800C003216F0B43C2F8E830236813F4800FA4
:1040880008D0724AD2F8E03023F44043616F0B4302
:10409800C2F8E030236813F4007F08D06B4AD2F8E6
:1040A800E83023F44063A16F0B43C2F8E83023687B
:1040B80013F4806F08D0654AD2F8E03023F4402327
:1040C800E16F0B43C2F8E030236813F4006F09D0A6
:1040D8005E4AD2F8E83023F44073D4F880100B43DA
:1040E800C2F8E830236813F4005F36D0D4F8903073
:1040F800402B20D00BD82BB3202B05D104F12C005A
:10410800FFF75EFE054622E00126354627E0602BD4
:1041180021D0802B0CD100254C4AD2F8E43023F072
:10412800E003D4F890100B43C2F8E430002616E000
:104138000126354613E0454A936A43F48033936277
:104148000025E9E704F10800FFF7ACFE0546002D5D
:10415800E2D02E4603E00025DEE700263546236838
:1041680013F4804F25D0D4F89430B3F5007F45D0B0
:104178000DD8002B48D0B3F5807F05D104F12C0071
:10418800FFF71EFE054608E00126354611E0B3F5A7
:10419800407F02D0B3F5806F2DD1002D3AD12B4A44
:1041A800D2F8E43023F4E063D4F894100B43C2F857
:1041B800E430236813F4004F10D0D4F8A830B3F5D6
:1041C800005F30D028D9B3F5804F31D0B3F5A04F78
:1041D8002ED0B3F5405F2BD001263546236813F463
:1041E800803F45D0D4F88830042B5CD8DFE803F052
:1041F80035305535350001263546DAE7134A936AD6
:1042080043F480339362C8E704F10800FFF74AFEDD
:104218000546C2E72E46CCE753B1B3F5805F07D019
:1042280001263546DAE704F10800FFF73BFE0546AC
:1042380055B9064AD2F8E83023F4E043D4F8A81078
:104248000B43C2F8E830C9E72E46C7E7000C024620
:10425800794A936A43F4803393623DBB764AD2F835
:10426800E43023F00703D4F888100B43C2F8E43095
:10427800236813F4003F30D0D4F88C30B3F5003FF6
:1042880000F0898017D8E3B1B3F5803F10D16A4AAE
:10429800936A43F48033936213E004F12C00FFF730
:1042A8008FFD0546D9E701263546E1E72E46DFE7CB
:1042B8000126354611E0B3F5403F02D0B3F5802F13
:1042C80066D1002D6DD15C4AD2F8E83023F4E023A2
:1042D800D4F88C100B43C2F8E830236813F4802F0D
:1042E8007AD0554BD3F8943013F0040F5BD1524B6E
:1042F800D3F8942042F00402C3F89420D3F8943001
:1043080003F004030193019B4FF001084B4A936AA1
:1043180043F001039362FCF711FD0746474B9B6A84
:1043280013F0010F05D1FCF709FDC31B022BF5D9CA
:104338000325002D4CD1404BD3F8F03013F44073D3
:1043480016D0D4F8C0209A4212D03B4AD2F8F030A6
:1043580023F44073D2F8F01041F48031C2F8F01021
:10436800D2F8F01021F48031C2F8F010C2F8F03021
:1043780013F0010F1AD1002D50D12F4AD2F8F03086
:1043880023F44073D4F8C0100B43C2F8F03020E097
:1043980001263546A1E704F12C00FFF711FD05467B
:1043A8008FE72E4699E74FF00008AFE7FCF7C6FC09
:1043B8000746214BD3F8F03013F0020FDBD1FCF79E
:1043C800BDFCC01B41F288339842F2D90325D2E7DD
:1043D8002E46B8F1000F23D1236813F4801F34D080
:1043E800D4F8A030B3F1006F00F0C98028D83BB1F1
:1043F800B3F1806F1CD104F10800FFF753FD0546A7
:10440800002D40F0C2800C4AD2F8E03023F040631F
:10441800D4F8A0100B43C2F8E03016E02E46D8E7D7
:10442800054AD2F8943023F00403C2F89430D3E755
:104438000126354609E000BF000C02460008024686
:10444800B3F1406FDCD001263546236813F4002F02
:104458000ED0D4F89830B3F5805F00F09880B3F5AB
:10446800005F00F09480002B00F091800126354613
:10447800236813F4805F09D0614AD2F8E43023F44A
:104488000063D4F89C100B43C2F8E430236813F49B
:10449800001F0FD0D4F8A430B3F5804F00F083800C
:1044A800574AD2F8E43023F48043D4F8A4100B43DD
:1044B800C2F8E430236813F4000F09D0504AD2F848
:1044C800E03023F44013D4F8B4100B43C2F8E030C2
:1044D800236813F0807F09D0494AD2F8E03023F4EA
:1044E8004033D4F8B8100B43C2F8E030236813F017
:1044F800007F09D0424AD2F8E83023F01803D4F8F4
:10450800BC100B43C2F8E830236813F0806F15D055
:10451800D4F8B030B3F5001F4BD0D4F8B030B3F5B1
:10452800401F4CD0002D50D1354AD2F8E43023F446
:104538004013D4F8B0100B43C2F8E430236813F0EA
:10454800006F0AD0D4F88430B3F1807F3FD0B3F144
:10455800007F4DD0002B3FD00126236813F0805FE9
:1045680009D0274AD2F8E83023F40043D4F8AC1035
:104578000B43C2F8E830304602B0BDE8F081204A6B
:10458800936A43F4003393623AE72E465DE745B9F0
:104598001B49D1F8E42022F440521343C1F8E43017
:1045A80066E72E4664E7164A936A43F480339362BB
:1045B80076E7134A936A43F400339362ADE704F154
:1045C8000800FFF76FFC0546ACE72E46B6E70C4A35
:1045D800936A43F40033936285B9094AD2F8E0300C
:1045E80023F04073D4F884100B43C2F8E030B4E7EA
:1045F80004F10800FFF756FC0546EDE72E46ACE748
:10460800000C024670B59CB021230193002302934D
:104618000393049305934FF4002206920222079213
:104628004FF40032089201220A920B920C930D93D8
:1046380012930F93109319931A931B93094E3146B3
:1046480001A8FEF7C7F80446074D31462846FEF78D
:10465800D7F80443E4B22846FEF729F92043C0B24C
:104668001CB070BDFC060020E406002030B58DB0FB
:1046780000240794089409940A940B94344BD3F8B3
:104688008C2042F00402C3F88C20D3F88C2002F06E
:1046980004020192019AD3F88C2042F02002C3F858
:1046A8008C20D3F88C2002F020020292029AD3F8D0
:1046B8008C2042F01002C3F88C20D3F88C2002F032
:1046C80010020392039AD3F88C2042F00202C3F836
:1046D8008C20D3F88C2002F002020492049AD3F8BA
:1046E8008C2042F04002C3F88C20D3F88C2002F0D2
:1046F80040020592059AD3F88C2042F00102C3F8D3
:104708008C20D3F88C3003F001030693069B4FF4FA
:10471800004307930F4B089307A90F48FEF76CF95E
:104728004FF4204307930125089509940A9407A993
:104738000A48FEF761F94FF4006307930895099456
:104748000A9407A90648FEF757F90DB030BD00BF17
:10475800000C024600001110001802420014024228
:10476800001002427047704738B5044606281CDC22
:104778000146114800F086FB013C104D04F001028F
:104788004FF400512846FEF745FAC4F340024FF4AF
:1047980000610B48FEF73EFAC4F380024FF4004173
:1047A8002846FEF737FA012038BD0146054800F0D3
:1047B80069FB0020F8E700BF84B300080014024238
:1047C8000010024268B3000872B6FEE708B5FEF7AB
:1047D800D1FAFEF7DFFA0220FEF796FA00B908BD13
:1047E800FFF7F2FF00B583B0184BD3F8882042F0EA
:1047F8000102C3F88820D3F8883003F0010301933D
:10480800019B002211465220FDF7CCFA5220FDF7F9
:10481800D9FA0F480F4B036000238363C3634FF437
:10482800003303644FF04043436481238364FDF7FE
:104838003BFF38B910210648FDF71CFC20B903B02E
:104848005DF804FBFFF7C0FFFFF7BEFF000C024650
:10485800500700205005024008B50020FEF7E0F997
:1048680018B9FEF7EFF910B908BDFFF7ADFFFFF76C
:10487800ABFF000000B589B020220021684600F097
:104888005FFB3D483D4B0360002343608360C3608A
:104898000122026108218161037780F82420062221
:1048A800826280F82C304363836380F840308366EB
:1048B8004FF48052426403650322C26380F8543087
:1048C800FCF7E4FA002848D12D4B00930623019306
:1048D800002302934FF6FF72039204220492059379
:1048E80069462548FCF71EFD002838D1254B009362
:1048F8000C23019369462048FCF714FD002830D1A9
:10490800214B00931223019369461B48FCF70AFDCB
:1049180048BB1E4B00931823019369461648FCF7C1
:1049280001FD10BB1A4B00934FF4807301930223CF
:10493800029369461048FCF7F5FCC0B9154B009383
:104948004FF4837301930023029369460A48FCF7E6
:10495800E9FC70B909B05DF804FBFFF735FFFFF714
:1049680033FFFFF731FFFFF72FFFFFF72DFFFFF7AB
:104978002BFFFFF729FF00BFC80700200080024275
:10498800000100208000001C100000100080003E84
:10499800040000080200000400B59FB06022002156
:1049A80006A800F0CDFA0023009301930293039325
:1049B800049305934FF44030FEF74EF900282ED1AA
:1049C800122306934FF48073099310230A9301214D
:1049D8000D910E934FF080430F930223149315917A
:1049E8000022179216915021189119931A931B932C
:1049F8001C921D9206A8FEF793FC90B91F23009302
:104A08000323019300230293039304930593042142
:104A18006846FEF7EBFA30B91FB05DF804FBFFF704
:104A2800D3FEFFF7D1FEFFF7CFFE000038B5FCF745
:104A380051F9FFF7B1FFFFF7C9FEFFF717FEFFF7C0
:104A4800D1FEFFF709FFFFF715FFFFF7DBFD154B59
:104A580015481867C3651549FDF76AFF08B1FFF7E0
:104A6800B3FE0C2212490F48FDF79EF8C0B1FFF7BC
:104A7800ABFE2046FFF778FE4FF47A70FCF764F936
:104A88000B4D012229460748FDF78EF8631E55F89D
:104A980023202146074800F0F5F90134062CE8DD0B
:104AA8000124FBE7C807002050070020E406002087
:104AB800200700209CB3000800B583B0084BD3F84A
:104AC800942042F00402C3F89420D3F8943003F001
:104AD80004030193019BFEF755F903B05DF804FB4D
:104AE800000C024630B5BDB004460021379138911C
:104AF80039913A913B91C82204A800F021FA226822
:104B0800304B9A4201D03DB030BD4FF400420023F3
:104B1800CDE904234FF480432E9304A8FFF734FA19
:104B280000284BD1284BD3F88C2042F48062C3F87C
:104B38008C20D3F88C2002F480620092009AD3F87B
:104B48008C2042F00402C3F88C20D3F88C2002F0A9
:104B580004020192019AD3F88C2042F00102C3F8B2
:104B68008C20D3F88C2002F001020292029AD3F82A
:104B78008C2042F00202C3F88C20D3F88C3003F06A
:104B880002030393039B0B233793032538950024D3
:104B9800399437A90D48FDF72FFF0C233793389523
:104BA800399437A90A48FDF727FF01233793389529
:104BB800399437A90748FDF71FFFA4E7FFF704FE5C
:104BC800B0E700BF00800242000C02460008024223
:104BD8000000024200040242FEE7FEE7FEE7FEE7AD
:104BE800FEE770477047704708B5FCF79BF808BDAB
:104BF80008B50248FDF750F908BD00BF500700206E
:104C08000E48D0F8883043F47003C0F888300C4B55
:104C180001221A600022DA611A625A62196821F0C8
:104C2800A85121F4102119609A62196821F4802191
:104C380019601A654FF000638360704700ED00E06B
:104C4800000C0246DFF834D0FFF7DAFF002103E05A
:104C58000B4B5B58435004310A480B4B42189A429D
:104C6800F6D30A4A02E0002342F8043B084B9A4272
:104C7800F9D300F00DFAFFF7D9FEFEE700000C208B
:104C880030B8000800000020C4060020C406002038
:104C98006C0B0020FEE70000002301461A46184668
:104CA80000F03ABA024A0349034800F0C9B800BF05
:104CB8000C00002025880008200000200C4B4168CB
:104CC800994210B5044601D003F0A8FDA168094B2C
:104CD800994202D0204603F0A1FDE168064B9942B3
:104CE80004D02046BDE8104003F098BD10BD00BFB9
:104CF80054080020BC080020240900202DE9F843AE
:104D0800314A0025314C04233149DFF8D89004F1A9
:104D18005C00DFF8D4802F4F2F4E116029460822FF
:104D280025606566C4E90335C4E90155C4E905553C
:104D380000F006F904F15800E662C4E90749C4E93D
:104D4800098700F0E1F9254B2946082204F1C4003F
:104D580063672567C4F8CC50C4F88050C4E91A5575
:104D6800C4E91E5500F0ECF804F1680304F1C00032
:104D7800C4F88430C4E92298C4E9247600F0C4F960
:104D8800174B294604F596700822C4F8DC30C4F89D
:104D9800D850C4F83451C4F8E850C4E93455C4E9CB
:104DA800385500F0CDF804F1D00304F59470C4F838
:104DB800F090C4F8FC60C4F8EC30C4E93D87BDE865
:104DC800F84300F0A1B900BF8C0900205408002066
:104DD800AD4C0008194F0008414F000809000100B8
:104DE80012000200B54E0008D94E000810B504465E
:104DF8000A4800F08DF9636B23B9094B094A1B680F
:104E0800626323B10548BDE8104000F083B9FFF79D
:104E180075FF0248BDE8104000F07CB99C090020ED
:104E28008C090020C54C0008014800F071B900BF8A
:104E38009C090020014800F06DB900BF9C090020C2
:104E48002DE9F8434FF00009074688461646D6E98B
:104E58000154013D10D4A389013D012B08D9B4F9AF
:104E68000E3021463846013302D0C04749EA0009CE
:104E78006B1C04F16804EED13668002EE7D1484671
:104E8800BDE8F8830FB4084900B583B0086804ABDF
:104E9800816853F8042B019300F0B2FD03B05DF86C
:104EA80004EB04B0704700BF1800002010B50C4692
:104EB800B1F90E1000F0C0F8002803DB236D03449D
:104EC800236510BDA38923F48053A38110BD00BFBF
:104ED8002DE9F0410C46B1F90C101F460546CB05EB
:104EE80016460BD421F480513B4632462846A18110
:104EF800B4F90E10BDE8F04100F0B4B8B4F90E10E2
:104F08000223002200F082F8B4F90C10EAE700BF8F
:104F180010B50C46B1F90E1000F078F8421CB4F93F
:104F28000C3004D043F480532065A38110BD23F4D2
:104F38008053A38110BD00BFB1F90E1000F054B822
:104F480070B586074AD0541E002A41D0CAB203461B
:104F580001E0013C3CD303F8012B9D07F9D1032C58
:104F68002FD9CDB20F2C05EB052505EB054538D912
:104F7800A4F1100C03F1100E1A462CF00F064FEA9C
:104F88001C1CB6441560103242F80C5C42F8085CF0
:104F980042F8045C7245F5D10CF1010214F00C0FD3
:104FA80004F00F0C03EB021213D0ACF1040323F04E
:104FB80003030433134442F8045B9A42FBD10CF018
:104FC80003042CB1C9B21C4403F8011B9C42FBD159
:104FD80070BD64461346002CF4D1F9E70346144625
:104FE800BDE71A46A446E0E738B50022064D044658
:104FF80008462A6006F014F9431C00D038BD2B6817
:10500800002BFBD0236038BD9009002038B50C4632
:1050180084461146074D1A460023204664462B60F5
:1050280006F026F9431C00D038BD2B68002BFBD0B6
:10503800236038BD9009002038B50C4684461146D7
:10504800074D1A460023204664462B6006F018F9DF
:10505800431C00D038BD2B68002BFBD0236038BD23
:105068009009002038B50C4684461146074D1A466B
:105078000023204664462B6006F01AF9431C00D032
:1050880038BD2B68002BFBD0236038BD9009002069
:105098000F4B70B50F4DAB42A3EB050607D0B6100A
:1050A8000024013455F8043B9847A642F9D80A4D24
:1050B80006F008F9094B5E1BAB424FEAA60606D07C
:1050C8000024013455F8043B9847A642F9D870BD2E
:1050D80023B8000823B8000824B800082CB8000832
:1050E80038B5074D074C2C1BA41005D0013C55F8CA
:1050F800043D9847002CF9D1BDE8384006F0E8B8DF
:1051080030B800082CB80008704700BF704700BFCF
:10511800704700BF704700BF2DE9F047DFF880A057
:10512800064698460F46DAF800009146FFF7F0FF6A
:10513800194B1C6834B365681F2D26DC5EB96B1CDF
:105148000235DAF80000636044F82570FFF7E2FFE3
:105158000020BDE8F08704EB85010123022EC1F889
:10516800889003FA05F3D4F8882142EA0302C4F8C8
:105178008821C1F80881E2D1D4F88C211A43C4F8F7
:105188008C21DCE7054C1C60D5E7DAF80000FFF756
:10519800C1FF4FF0FF30DCE7300B0020A0090020F2
:1051A80040010020024B13B10248FFF775BD70475C
:1051B80000000000E95000082DE9F8430646DFF832
:1051C800AC800820894603F071FF0546304600F0A0
:1051D8000BFCD8F808305F6827F00307A7F1110423
:1051E800A4EB09042C44B4FBF5F4013C05FB04F4DE
:1051F800A54208DC0021304603F046FFD8F8083005
:105208003B44984205D0304600F0F4FB0020BDE84E
:10521800F8836142304603F037FF01300FD03F1B5F
:10522800104AD8F80830304647F001075F60136825
:105238001B1B136000F0DEFB0120BDE8F883002192
:10524800304603F021FFD8F80820831A0F2BDADD47
:1052580043F0010303495360034B1B68C01A0860FD
:10526800D1E700BF340B002044010020500100208A
:1052780000297DD0F8B50C46064600F0B5FB7A4FFC
:1052880054F8042CA4F10805B86822F0010105EBD4
:10529800010CDCF80430604523F0030300F088803B
:1052A800D207CCF8043032D454F8082C07F108009F
:1052B800AD1A1144AA6882426BD00CEB0304D4F8EF
:1052C80004E0EC681EF0010FD460A26000F0898051
:1052D80041F001036B60CCF80010B1F5007F24D2D7
:1052E800CB080122490901338A4079680A4357F8F3
:1052F80033107A6007EBC302083AC5E9021247F88F
:105308003350CD603046BDE8F84000F073BB0CEB7D
:1053180003025268D2072CD541F00103B1F5007F92
:1053280044F8043CCCF80010DAD3B1F5206F4FEA0A
:10533800512358D28B0903F1390003F13802C30015
:10534800F818FB580838984203D166E09B689842E1
:1053580004D05A6822F003028A42F7D8D868C5E90F
:10536800023085603046DD60BDE8F84000F042BBA1
:105378007047194407F10800DCF80830834243D02D
:10538800DCF80C20DA60936041F001036B6069502F
:10539800A3E70CEB03025268D0075FD40B44DCE9A7
:1053A8000212CA60916043F001026A60EB50A9E7FB
:1053B8000B44D10707D454F8082CAD1A1344D5E987
:1053C8000212CA60916043F001026A60274ABD6018
:1053D80012689A4296D8264B30461968FFF7ECFEB9
:1053E80090E71944C8E7142B08D9542B1DD80B0B88
:1053F80003F16F0003F16E02C300A1E703F15C0043
:1054080003F15B02C3009BE741F001033D617D614D
:10541800A860E8606B60695074E70121921001FA96
:1054280002F279680A437A6099E7B3F5AA7F06D849
:10543800CB0B03F1780003F17702C30080E740F259
:105448005452934206D88B0C03F17D0003F17C0281
:10545800C30075E74FF47E737E2271E741F00103C4
:105468006B60CCF800104DE7500100204801002087
:10547800640B002001F10B03162B2DE9F04F0746B2
:1054880085B023D8102900F2BA8000F0ADFA1025B3
:1054980018230221BE4E33445C68A3F108029442EB
:1054A80000F036816368384623F00303D4E902121A
:1054B80023440834CA6091605A6842F001025A6075
:1054C80000F098FA204605B0BDE8F08F002B23F0D5
:1054D8000705C0F29480A94200F2918000F084FA96
:1054E800B5F5FC7FC0F072816B0A00F08C80042B4C
:1054F80000F23981AB0903F1390103F1380CCB0013
:10550800A34E3344A3F108005C68A04206D10CE026
:10551800002A80F2EC80E468A04206D0636823F099
:1055280003035A1B0F2AF3DD6146DFF878E234697A
:10553800744500F0C980626822F00302531B0F2BE8
:1055480000F35281002BC6E904EE80F24381B2F5E4
:10555800007F80F0E38053094FEAD20C01220CF15E
:10556800010C9A40736856F83C001A4306EBCC03CA
:10557800083B7260C4E9020346F83C40C4608B10E3
:1055880001209840904244D8104205D121F00301EF
:10559800400004311042FBD006EBC10988464C4656
:1055A800D4F80CC0644508D1E9E0002B80F2FE80F5
:1055B800DCF80CC0644500F0E280DCF8042022F03E
:1055C8000302531B0F2BF0DD0CEB0501384645F0A9
:1055D8000105DCE90274CCF80450FC60A76043F0D4
:1055E8000104C6E904114C600CF10804C1F808E094
:1055F800C1F80CE04CF8023000F0FCF962E70C232B
:105608003B6000245EE74FF4007340214FF03F0CED
:1056180076E7B468636823F00309A9EB05030F2B49
:1056280001DDA94552D25B4B0820DFF87CB11B682D
:1056380003F1100803F03AFDDBF8003004EB09022F
:10564800A8440190013305D008F1FF384342804453
:1056580003EA080841463846029203F015FDB0F106
:10566800FF3F8246029A00F0DA80824200F2D5803B
:10567800494B0199186801F1FF314044844618608C
:1056880040F0F8801AEA010F40F0F480C844D6F8D8
:1056980008A048F00102CAF80420404B5446196893
:1056A800814238BF18603E4B1968814238BF186084
:1056B80022F00308A8EB05030F2B01DDA84505D24E
:1056C800384600F097F99CE7726858E7621945F088
:1056D800010543F00103083444F8045C3846B2601D
:1056E800536000F087F9204605B0BDE8F08FD4E993
:1056F800021223440834CA60384691605A6842F05E
:1057080001025A6000F076F9204605B0BDE8F08F36
:10571800DC68A3427FF4C6AE023106E7B2F5206F1B
:105728004FEA522373D3142B00F2058103F15C0076
:105738005B33C00006EB000C3058ACF1080C844514
:1057480003D1E0E08068844504D0436823F0030374
:105758009342F7D8D0F80CC07268C4E9020CCCF8B0
:105768000840C4600BE7142B5CD9542B00F2EB8083
:105778002B0B03F16F0103F16E0CCB00C0E608F1AF
:105788000108083418F0030F7FF40AAF55E000BF92
:1057980050010020640B0020340B0020600B002017
:1057A8005C0B00205801002044010020624464463C
:1057B800DCF80C103846536843F00103536054F882
:1057C800083FD9608B6000F015F97BE6E90805F120
:1057D80008035FE6224438460834536843F001035F
:1057E800536000F007F96DE6611945F00105384688
:1057F800656043F00105C6E90411C1F808E0C1F885
:105808000CE04D60A350083400F0F4F85AE6930910
:1058180003F139003833C0008CE7B44222D0B468B1
:10582800626845E703F15C0103F15B0CCB0067E6B6
:1058380059F808394B4540F0D28011F0030F01F1B7
:10584800FF31F5D1736823EA000373604000421EFC
:105858009A4203D3DDE6400008F104081842FAD062
:10586800414699E65F4B01991868013908EB000C2D
:10587800C3F800C0DBF8000001306ED0AAEB0202CA
:1058880062441A601AF00702CDE9022342D0C2F13D
:105898000802019B384692441344D04408EA010C9C
:1058A800A3EB0C0202EA010B594603F0EDFB421C84
:1058B800039B6DD0A0EB0A0000EB0B08186848F0BA
:1058C8000102B442C6F808A05844CAF80420186077
:1058D8003FF4E3AEB9F10F0F42D96168A9F10C02A8
:1058E8004FF0050C22F0070201F0010111430F2AC5
:1058F800616004EB0201C1F804C0C1F808C04FD8C8
:10590800DAF80420C9E69B1001229A4073681A430A
:10591800726022E70AEB0802019B38460A409A1A8D
:1059280002EA010B594603F0AFFB431C039BC1D1AC
:10593800DDF808B0C2E7542B16D8130B03F16F003B
:105948006E33C000F6E6B3F5AA7F16D8EB0B03F169
:10595800780103F1770CCB00D2E5CBF800A091E7F2
:105968000123CAF80430ABE6B3F5AA7F23D8D30BDA
:1059780003F178007733C000DCE640F254529342DA
:1059880023D8AB0C03F17D0103F17C0CCB00B7E508
:10599800029A4FF0000B083A9044A8EB0A088DE7EA
:1059A800384604F108010193FFF762FC019BD6F821
:1059B80008A01868A4E740F2545083420BD8930C0F
:1059C80003F17D007C33C000B4E64FF47E737F2181
:1059D8004FF07E0C94E54FF47E707E23AAE6736840
:1059E80034E700BF340B00200148FFF791BB00BF2C
:1059F800940900200148FFF78DBB00BF94090020DF
:105A08002DE9F04FDBB01C46834604910DF1A8093F
:105A1800069203F035FB03680A941846159303F0C1
:105A28009FFB0822149000214846FFF789FABBF132
:105A3800000F04D0DBF83430002B01F0C280049A48
:105A4800536EDD0740F14581B2F90C20910407D46B
:105A5800049942F400524B6E8A8123F400534B663A
:105A6800130740F1C080049B1B69002B00F0BB802A
:105A780002F01A030A2B00F0C58000239FED9C7BDF
:105A88009E46CDE92F3331ABCDF84CE0CDF81CE084
:105A98002E930393CDF83CE0CDE916EECDE918EE50
:105AA8008DED107B069E944BD3F8E44003F0E2FAA8
:105AB8003246034626A95846CDF80090A04700284C
:105AC800034600F0BE80C0F2B480269A252A01D091
